:020000040800F2
:10000000983F0024BD030008B78000086975000808
:10001000B5800008F90D0008619500080000000097
:1000200000000000000000000000000083840008C1
:100030002D14000800000000B98000088584000825
:10004000D7030008D7030008D7030008D703000828
:10005000D7030008D70300082F140008D7030008AF
:10006000D7030008D7030008D70300087D0E000857
:10007000890E0008950E0008A10E0008AD0E0008BC
:10008000B90E0008C50E0008D70300085114000877
:100090005D140008D7030008D7030008D703000841
:1000A000D703000849850008D7030008D7030008D4
:1000B000D7030008D7030008D7030008D7030008B8
:1000C000D7030008D7030008D7030008D7030008A8
:1000D000FD82000855950008D7030008D7030008E3
:1000E00035140008D703000800000000D7030008FB
:1000F000D7030008D7030008D7030008D10E000873
:10010000D7030008D7030008D7030008D703000867
:10011000D7030008E58A0008D7030008D7030008C2
:10012000D7030008D7030008D7030008D703000847
:10013000D7030008D7030008D7030008D703000837
:1001400000000000000000000000000000000000AF
:10015000D7030008D7030008D7030008D703000817
:10016000D7030008D7030008D7030008D703000807
:10017000D7030008D7030008D703000800000000D9
:10018000D7030008D7030008F18A0008D703000846
:10019000D7030008D7030008D7030008D7030008D7
:1001A000D7030008D7030008D703000800000000A9
:1001B000D7030008D7030008D7030008D7030008B7
:1001C000D7030008D703000800000000000000006B
:1001D0000000000000000000D7030008000000003D
:1001E000000000000000000000000000000000000F
:1001F0000000000000000000D7030008D70300083B
:10020000D7030008D703000800000000D703000848
:10021000D7030008D7030008D7030008D703000856
:10022000D703000800000000D7030008000000000A
:10023000D7030008D703000800000000D703000818
:10024000D7030008D7030008D7030008D703000826
:10025000D7030008D7030008D7030008D703000816
:10026000D7030008D7030008D7030008D703000806
:10027000D7030008D7030008D703000800000000D8
:10028000D7030008D7030008D7030008D7030008E6
:1002900000000000D7030008D7030008000000009A
:1002A00000000000D7030008D7030008D7030008A8
:1002B00049950008D7030008D7030008691400080F
:1002C000D7030008D7030008D703000800F002F89E
:1002D00000F065F80AA090E8000C82448344AAF17B
:1002E0000107DA4501D100F05AF8AFF2090EBAE879
:1002F0000F0013F0010F18BFFB1A43F0010318475A
:1003000044E5000064E500000A444FF0000C10F8DA
:10031000013B13F0070408BF10F8014B1D1108BF83
:1003200010F8015B641E05D010F8016B641E01F823
:10033000016BF9D113F0080F1EBF10F8014BAD1C73
:100340000C1B09D16D1E58BF01F801CBFAD505E091
:1003500014F8016B01F8016B6D1EF9D59142D6D3EB
:10036000704700000023002400250026103A28BF13
:1003700078C1FBD8520728BF30C148BF0B60704717
:100380001FB50DF061FF9DE8030000F06DFA00F06D
:1003900099F91FBD10B5002000F01DFA10BD00F046
:1003A000D1FA1146FFF7ECFF0DF070FE00F00EFBE6
:1003B00003B4FFF7EFFF03BC00F042FB094880479E
:1003C00009480047FEE7FEE7FEE7FEE7FEE7FEE737
:1003D000FEE7FEE7FEE7FEE704480549054A064B4F
:1003E0007047000089840008CD020008982F00247F
:1003F000983F0024983700249837002453EA020CD1
:1004000000F069802DE9F04B4FF00006002B1FBF74
:10041000B3FA83F503FA05F424FA05F65E4012BF39
:100420001643B2FA82F502FA05F4C5F120051EBFA3
:1004300022FA05FC44EA0C04203556EA044C4FEA43
:10044000144418BF641C4FF000084FF0000990429C
:1004500071EB030C39D3002919BFB1FA81F701FA06
:1004600007F6B0FA80F700FA07F6C7F120071EBFBB
:1004700020FA07FC46EA0C062037B6FBF4FCA7EB93
:100480000507103F07F01F0BCBF120060CFA0BFB02
:100490002CFA06F644BFB3460026202FA4BF5E46C2
:1004A0004FF0000B5BEA060C08BF4FF0010B19EB95
:1004B0000B09ABFB027C48EB0608C01B06FB02CC19
:1004C0000BFB03CC71EB0C01C1E70B460246414626
:1004D0004846BDE8F08B13B54FF000004FF0000127
:1004E000AFF30080BDE81C4070472DE9F04107469E
:1004F00015460E46102000F00DF904000AD0676082
:10050000C4E9026500F002F901682160046000207E
:10051000BDE8F0810120FBE7032A40F2308010F0B3
:10052000030C00F0158011F8013BBCF1020F62448E
:1005300098BF11F801CB00F8013B38BF11F8013B1F
:10054000A2F1040298BF00F801CB38BF00F8013BCC
:1005500011F0030300F02580083AC0F0088051F83C
:10056000043B083A51F804CBA0E80810F5E7121D47
:100570005CBF51F8043B40F8043BAFF30080D20766
:1005800024BF11F8013B11F801CB48BF11F8012B32
:1005900024BF00F8013B00F801CB48BF00F8012B55
:1005A000704710B5203AC0F00B80B1E81850203ADF
:1005B000A0E81850B1E81850A0E81850BFF4F5AF03
:1005C0005FEA027C24BFB1E81850A0E8185044BF8D
:1005D00018C918C0BDE810405FEA827C24BF51F8FA
:1005E000043B40F8043B08BF7047D20728BF31F8EE
:1005F000023B48BF11F8012B28BF20F8023B48BF3F
:1006000000F8012B704701F0FF03114601B543EAE2
:10061000032242EA024200F00BF801BD02F0FF03A0
:1006200043EA032242EA024200F002B84FF000021D
:100630000429C0F0128010F0030C00F01B80CCF1F4
:10064000040CBCF1020F18BF00F8012BA8BF20F862
:10065000022BA1EB0C0100F00DB85FEAC17C24BFB6
:1006600000F8012B00F8012B48BF00F8012B704760
:100670004FF0000200B5134694469646203922BF3B
:10068000A0E80C50A0E80C50B1F12001BFF4F7AF86
:10069000090728BFA0E80C5048BF0CC05DF804EB68
:1006A000890028BF40F8042B08BF704748BF20F8D6
:1006B000022B11F0804F18BF00F8012B70477047D4
:1006C0007047704770B5064C7C44064D7D4403E08E
:1006D000206820448047241DAC42F9D170BD000041
:1006E00098E10000B0E100002DE9F04117460E4608
:1006F000054633B107FB0354E41B2046B047A5422F
:10070000FAD1A5F10800BDE8F0810000004870476B
:100710006C2F002470B5064600F082F8056806F1DB
:100720000B0020F00704B4429CBF002070BD2B4694
:100730006A68BAB11068A04210D304F10801884277
:100740003CBF5068586007D3516810194160116868
:10075000091B016058601460101D70BD134652687B
:10076000002AE7D12146284600F06AF80028DED1A9
:1007700070BD70B50446051F00F052F80068002CEB
:1007800014BF446870BD002C18BFAC423CBF20466B
:100790006468F8D301680A18AA4218BF456003D1FB
:1007A0002A6805461144016028684119A1421CBF0E
:1007B0006C6070BD6168696021680844286070BD24
:1007C00010B500F035F8006810BD10B5044600F013
:1007D0002FF8046010BD2DE9F0410646FFF796FFA3
:1007E0008046454613E016B1E068B0420ED120685D
:1007F0002860D4E90101D8F8007088472046FFF747
:10080000B8FFD8F80000B842EBD100E025462C68CC
:10081000002CE8D1BDE8F08100487047342F002457
:10082000004870473C2F002400487047682F002480
:1008300000487047342F0024704770477047704756
:1008400038B504460A4600206946AFF30080002808
:1008500008BF38BD02460099204600F09DF80120EF
:1008600038BD012000F0C6B8F8B5AFF300800546EA
:1008700000200C46102000BF0646A819A0420DD942
:10088000324669460020AFF30080070008BF00F041
:10089000B1F80098A04218BF0546C419FFF7C0FF81
:1008A00005600746F01D20F007004619284600F0B5
:1008B0000AF8B44208BFF8BDA21B31463868BDE84B
:1008C000F84000F069B800210160C0E901107047EC
:1008D00010207047AFF3008010B500F00EF80169EA
:1008E00019B100220261884701E08068804700F06A
:1008F00076F8000010B500F072F870B500F048F816
:1009000004680546A4B92020FFF704FF040011D0B5
:10091000094900202C60C4E900010849A160207346
:10092000206160610649A06109B100F06AF8E061E8
:10093000204670BD00F053F800000000F5080008E4
:10094000000000007546FFF767FFAE4605006946E8
:10095000534620F00700854618B020B5FFF73CFD50
:10096000BDE820404FF000064FF000074FF00008B0
:100970004FF0000B21F00701AC46ACE8C009ACE831
:10098000C009ACE8C009ACE8C0098D46704700005A
:1009900000487047702F0024034640688C460028AA
:1009A00018BF88423CBF03464068F8D31868184413
:1009B000884207D00CF1030020F00700001D411A07
:1009C000521A0146081D0A60FFF7D3BE10B504464F
:1009D000AFF300802046BDE81040FFF7E9BC10B53A
:1009E000002000F039F8FFF7D5FCBDE810400120E9
:1009F00000F026B810B500F037F8BDE8104000F060
:100A000026B810B58820FFF785FE002801D0002108
:100A1000017010BD802902D808B1017809B1002009
:100A20007047012100F8081B704718B100F1080257
:100A3000914201D0002070470021017070470000F2
:100A400001491820ABBEFEE72600020070470028CF
:100A500001D0FFF7F5BF704710B500F047F8BDE8CB
:100A60001040FFF7F4BF000010B5012805D00021A9
:100A700003A000F021F8012010BD09A1F8E7000053
:100A800053494752544D454D3A204F7574206F6677
:100A90002068656170206D656D6F727900000000DF
:100AA0003A2048656170206D656D6F727920636FC3
:100AB000727275707465640070B505460C460A2044
:100AC00000E06D1C00F02AF835B128780028F8D134
:100AD00002E0641C00F022F814B120780028F8D15C
:100AE000BDE870400A2000F019B8000010B50021E0
:100AF00002A0FFF7E1FF012010BD0000534947416C
:100B00004252543A2041626E6F726D616C2074657E
:100B1000726D696E6174696F6E00000008B5694698
:100B20008DF800000320ABBE08BD00009FED060A53
:100B3000F7EE000AC0ED000A80ED010A80ED020A1E
:100B400080ED030A704700000000000000EE101A5C
:100B5000DFED050AB8EE400AD3EC031A80EE803AC6
:100B600092EC030A07F0AEB900007A440122024871
:100B7000114603F073B90000000802580022024831
:100B8000012103F06BB9000000080258012202485D
:100B9000082103F063B9000000080258002202484F
:100BA000082103F05BB90000000802582DE9FC475A
:100BB0007F4C042020700CF041FF61780843607086
:100BC0000CF08EFF6178084360707DD1794E00276C
:100BD00006226946A6F59E7000F59475A6F10408F4
:100BE00080F82C7012200097019709F06DFE9DF897
:100BF00001004FF008099DF80010D4ED070A00022B
:100C000000B2084300EE100AB8EEC00A20EE200A37
:100C100085ED010A9DF803009DF80210D4ED070A46
:100C2000000200B2084300EE100AB8EEC00A20EE3F
:100C3000200A85ED020A9DF805009DF804100002C7
:100C400000B2084300EE100AB8EEC00A20EE200AF7
:100C500085ED030A6D46FFF7A1FF4A46294638464F
:100C600009F07EFCFFF792FF9DF800000F2832D1BB
:100C70009DF803009DF80210D4ED080A000200B2AE
:100C8000084300EE100AB8EEC00A20EE200A86EDF6
:100C9000000A9DF805009DF80410D4ED080A000232
:100CA00000B2084300EE100AB8EEC00A20EE200A97
:100CB00086ED010A9DF807009DF80610000200B2BB
:100CC000084300EE100A00E070E0B8EEC00A20EE23
:100CD000200A86ED020A02226946222009F0F4FD6C
:100CE0009DF800109DF80100C90041EA5010B0F5D0
:100CF000806F01DBA0F500602E4A00EE100AB4EE12
:100D0000001AF3EE070AB8EEC00A143AA2F59A7177
:100D1000A1F10C0040EE010AC8ED000A08F0EAFE5D
:100D20009FED260A2348B7EE004A1030F7EE003A4E
:100D30009FED213AF0EE402AB3EE0E2ADFED201AA5
:100D4000B2EE041AF6EE000A0CF00CF918481D4930
:100D5000DC30FFF7EBFE1B48A0F1180190ED000A14
:100D6000A0F1240281ED000AA0F1300382ED000A17
:100D700083ED000A90ED010A81ED010A82ED010A7E
:100D800083ED010A90ED020A0F4881ED020A82ED1F
:100D9000020A83ED020A04F02DFD08B100F055FBB4
:100DA0000A480C2105F002FD27706078BDE8FC8739
:100DB00038010024D821002400000000000048432E
:100DC0000000FA439020002498050024B408002471
:100DD00001B582B04FF4FA700123009001AA0448D3
:100DE00002A904F089FE0349C8639DF804000EBD02
:100DF0009805002438010024FEE7000070B51C4C63
:100E000000201C4DA070C0B200EB800101EBC001BE
:100E100029440A79120624D5D1F809200AB31449C5
:100E2000543151F8200001219047D0B11249552387
:100E3000A07800EB800611F8202001EB800106EB82
:100E4000C0002A5428444A78427089788170C3705F
:100E5000017921F08001017108F0C4FFE06A401CB3
:100E6000E062A078401CC0B2A0700428CBD370BD53
:100E7000380100246C21002434E70008014801F007
:100E800027B800004C060024014801F021B80000FA
:100E9000C4060024014801F01BB80000A00C002487
:100EA000014801F015B80000080E0024014801F0C7
:100EB0000FB80000800E0024014801F009B80000BE
:100EC000F80E0024014801F003B80000180D0024BA
:100ED000014800F0FDBF0000900D0024294A016880
:100EE00091423AD0274A1832914236D0254A3032C0
:100EF000914232D0234A483291422ED0214A603268
:100F000091422AD01F4A7832914226D01D4A90320F
:100F1000914222D01B4AA83291421ED01A4A9142D5
:100F20001BD0194A1832914217D0174A30329142D9
:100F300013D0154A483291420FD0134A6032914281
:100F40000BD0114A7832914207D00F4A9032914229
:100F500003D00D4AA832914211D1CAB21823103AD7
:100F6000B2FBF3F26FF30901032A02F00703074A09
:100F7000D25CC26500D9091D81650846704721F021
:100F8000FF01F9E71000024010040240A4E300084A
:100F900030B5224A012301689142CAB21BD01F4CCE
:100FA0001434A14217D01D4C2834A14213D01B4C3D
:100FB0003C34A1420FD0194C5034A1420BD0174CF5
:100FC0006434A14207D0154C7834A14203D0134CAD
:100FD0008C34A1420CD11421114C083AB2FBF1F12E
:100FE0000F4A803201F01F0504EB8101AB4010E095
:100FF0000C4D1824103A0D44B2FBF4F1A82D00D882
:101000000831094A01F01F0402EB8101064AA3409E
:101010008032603080E80E0030BD00000854025875
:1010200000580258F0FBFDBF0008024010B50279DD
:10103000531E072B2DD8174C0168A1421BD0154C0D
:101040001434A14217D0134C2834A14213D0114CB0
:101050003C34A1420FD00F4C5034A1420BD00D4C68
:101060006434A14207D00B4C7834A14203D0094C20
:101070008C34A14203D10849074C443102E00749AE
:10108000064C443104EB8202C0E91B210121994046
:10109000416710BD08540258FC580258FC08024031
:1010A00010B583694FF0C074826A0146002053B1C5
:1010B000B3F5005F15D072B1012A0CD0022A0AD014
:1010C000032A09D104E01AB1012A06D0022A03D169
:1010D000C96AC90100D5012010BDC96AA142FAD070
:1010E00010BD002AF7D0012AF2D0022AF3D0032A39
:1010F000F3D010BD2DE9F04F804E804FDFF8FC910A
:101100001836DFF8F8A148370468856D0AF1300A0F
:10111000DFF8ECB14C45DFF8ECC1DFF8ECE16DD065
:10112000B4426BD0544569D0BC4267D0DFF8D0815F
:10113000A8F11808444561D05C455FD064455DD096
:1011400074455BD0DFF8C481444557D0DFF8BC81DB
:1011500008F11808444551D0DFF8B08108F1300893
:1011600044454BD0DFF8A48108F14808444545D0F8
:10117000DFF8988108F1600844453FD0DFF88C81A2
:1011800008F17808444539D0DFF8808108F19008EB
:10119000444533D0DFF8748108F1A80844452DD0C8
:1011A000DFF86C81444529D0DFF8648108F1140828
:1011B000444523D0DFF8588108F1280844451DD064
:1011C000DFF84C8108F13C08444517D0DFF8408136
:1011D00008F15008444511D0DFF8348108F1640863
:1011E00044450BD0DFF8288108F17808444505D044
:1011F000DFF81C8108F18C08444509D1D0E9194871
:10120000C4F80480C46E1CB1D0E91C48C4F8048042
:1012100004684C452ED0B4422CD054452AD0BC4250
:1012200028D0374E183EB44224D05C4522D06445C5
:1012300020D074451ED0354EB4421BD0334E1836E4
:10124000B44217D0314E3036B44213D02F4E483608
:10125000B4420FD02D4E6036B4420BD02B4E7836B0
:10126000B44207D0294E9036B44203D0274EA83658
:10127000B44215D190F85C603F2406F01F06B440DC
:10128000AC600468256825F4802525602EE09A600E
:101290000068C160BDE8F08F99600068C260F9E73E
:1012A0001B4EB4421BD01A4E1436B44217D0184EFF
:1012B0002836B44213D0164E3C36B4420FD0144EEA
:1012C0005036B4420BD0124E6436B44207D0104EA2
:1012D0007836B44203D00E4E8C36B442DAD190F850
:1012E0005C60012406F01F06B4406C600468636013
:1012F0008368402B0368CFD1C9E70000100002408B
:1013000088000240A0000240B800024010040240E1
:10131000085402581D48F0B5021F808B117843080D
:101320008408C50860F30001060963F34101470919
:1013300064F382014FEA901C65F3C3014FEAD01EAB
:1013400066F30411030A67F34511440A6CF386112E
:10135000850A6EF3C7111170C60A070BC10B4FEA5D
:10136000503C4FEA903E507863F3000064F3410034
:1013700065F3820066F3C30067F304106CF3451055
:101380006EF3861061F3C7105070F0BD1C0000248E
:1013900070B5040046D02088C0F30A000CF096FC1B
:1013A000214D85ED020A6078A178C00840EA41101D
:1013B000C0F30A000CF08AFC85ED030AA078E178FE
:1013C0002279800940EA810040EA8220C0F30A00C5
:1013D0000CF07CFC85ED000A20796179400840EA38
:1013E000C110C0F30A000CF071FC85ED010A6079B0
:1013F000800928746079C0F301106874208AC0F3F2
:101400000A006882E088A8822089E88260892883AF
:10141000207BA876607BE876E089A883FFF77AFFD7
:101420000120A87770BD00001C0000247047012037
:1014300002F0F6BB4FF4806010B502F0F1FBBDE89E
:1014400010404FF4805002F0EBBB72B6FEE7000094
:10145000014801F0D9BD0000D4020024014801F088
:10146000D3BD0000C0030024014801F0CDBD000041
:10147000AC040024F0B503684FF6FC716D4C426B70
:10148000D3F884508D4345EA8205C3F8845003683D
:1014900053F8845F068F25F47F0545EA06451D60F5
:1014A000836B654D9F180268D2F888308B4343EAFE
:1014B0008703C2F88830026852F8883F868F23F489
:1014C000FE0343EA06431360066856F8A03FC26B6A
:1014D0008B4307EB420243EA82033360076857F805
:1014E000A03FB0F8406023F4FE0343EA06433B60AC
:1014F000D0E9103603FB06220368D3F8B0608E43B0
:1015000046EA8206C3F8B0600368B0F84860D3F8D2
:10151000B07027F4FE0747EA0646C3F8B060D0E98A
:101520001267036806FB0722D3F8AC608E4346EAD5
:101530008206C3F8AC60D0E91467036806FB072293
:10154000D3F8F0608E4346EA8206C3F8F060036881
:10155000B0F85860D3F8F07027F47C1747EA0646D5
:10156000C3F8F0600368876D53F8C06F02EB470261
:101570008E4346EA820119600168B0F85C20D1F818
:10158000C03023F47C1343EA0242C1F8C020016852
:1015900090F86020D1F8C03023F07C5343EA026217
:1015A000C1F8C020416B04EB8101C166826B01EB85
:1015B00082020267C36B02EBC3024267D0E91034B8
:1015C000634302EB83028267D0E91234634302EB88
:1015D0008302C267D0E91434634302EB8302C0F88C
:1015E0008020836D02EBC303C0F88430C46D826E2B
:1015F000544303EB8403C0F88830046E544303EB78
:101600008402C0F89020AA420AD9D0F89C20032175
:1016100042F02002C0F89C2080F898100120F0BD14
:10162000002200E004C1D0F890308B42FAD80020AC
:10163000F0BD000000AC0040FCD30040F0B58E6867
:101640000C69D1E9005744EA0604DFB145F0804552
:101650002C43866ED1E906C54F695E4391F8203070
:1016600045EA0C05B1F80CC0D0F884E0002047EA48
:1016700003630C4F1D430EEB860345EA0C45E3E87C
:1016800002450AE044EA8544E3E71418155C001DAE
:10169000D4F8014045EA042410C3CC683C5D844280
:1016A000F3D8F0BD48E30008C90710B50BD00649D0
:1016B0008424CB6844EA002423F4E660C860C86848
:1016C00010432043C86010BD00200052C9070BD052
:1016D0000649CA6822F03002CA60CA680243CA607A
:1016E000C86840F08800C8607047000000200052C1
:1016F0002DE9F047042789460024054602F0B4FB93
:10170000164E804608E0681C06D002F0ADFBA0EB48
:101710000800A84208D83DB1306937EA0000F2D08D
:10172000B9F1010F03D005E00320BDE8F0870C48B4
:1017300034690440600006D00A4881692143816110
:1017400074610120F1E7B9F1010F05D13069C003DF
:1017500002D54FF4803070610020E6E7002000528F
:101760000000EE17700F00242DE9F84F044602F038
:101770007BFB00903CB194F83500022806D0802114
:1017800061650020E4E00120BDE8F88FC74DC74E39
:10179000C649183520683036DFF81483DFF8149313
:1017A0008842DFF814A3DFF814B328D0A84226D06B
:1017B000B04224D0404522D0484520D050451ED0CC
:1017C00058451CD0BD4A1832904218D0BC4A9042AD
:1017D00015D0BB4A1832904211D0B94A30329042EB
:1017E0000DD0B74A4832904209D0B54A6032904293
:1017F00005D0B34A7832904201D0B14A90320268A3
:1018000022F001020260206888422ED0A8422CD02B
:10181000B0422AD0404528D0484526D0504524D053
:10182000584522D0A54A183290421ED0A44A904270
:101830001BD0A34A1832904217D0A14A30329042AE
:1018400013D09F4A483290420FD09D4A6032904256
:101850000BD09B4A7832904207D0994A90329042FE
:1018600003D0974AA832904209D1026822F01E02A2
:1018700002602068426922F08002426103E002684F
:1018800022F00E0202602768884938468F424DD008
:10189000A8424BD0B04249D0404547D0484545D0FA
:1018A000504543D0584541D08449183188423DD0F5
:1018B000834988423AD082491831884236D08049DB
:1018C0003031884232D07E49483188422ED07C491E
:1018D000603188422AD07A497831884226D07849C6
:1018E0009031884222D07649A83188421ED075496D
:1018F00088421BD073491431884217D0714928316E
:10190000884213D06F493C3188420FD06D49503125
:1019100088420BD06B496431884207D069497831DD
:10192000884203D067498C318F4214D1206E016800
:1019300021F4807101600EE002F096FA0099401ADD
:10194000052808D9202262650321002084F835107B
:1019500084F8340017E73868C007EDD1534A0121F5
:10196000206890422ED0A8422CD0B0422AD04045C8
:1019700028D0484526D0504524D0584522D04F4B3A
:10198000183398421ED04E4B98421BD04C4B183304
:10199000984217D04A4B3033984213D0484B4833C3
:1019A00098420FD0464B603398420BD0444B78336B
:1019B000984207D0424B9033984203D0404BA83313
:1019C000984208D194F85C703F23A06D07F01F0780
:1019D000BB40836007E094F85C30A06D03F01F0308
:1019E00001FA03F34360206890424DD0A8424BD0E7
:1019F000B04249D0404547D0484545D0504543D0F6
:101A0000584541D02D4A183290423DD02C4A904240
:101A10003AD02B4A1832904236D0294A303290427E
:101A200032D0274A483290422ED0254A6032904226
:101A30002AD0234A7832904226D0214A90329042CE
:101A400022D01F4AA83290421ED01E4A90421BD07C
:101A50001C4A1432904217D01A4A2832904213D0AE
:101A6000184A3C3290420FD0164A503290420BD066
:101A7000144A6432904207D0124A7832904203D01E
:101A8000104A8C3290420BD1D4E919024260E06EC8
:101A900030B1026822F480720260D4E91C02426014
:101AA000002084F8351084F834006DE61000024000
:101AB000580002407000024088000240A00002402E
:101AC00010040240085402582DE9F05F28B190F844
:101AD0003510022904D0802141650120BDE8F09F26
:101AE000764A764BDFF8D4C1183201683033744C33
:101AF000DFF8D0B16145744D744E754FDFF8D4E115
:101B0000DFF8D4A1DFF8D49131D091422FD099429F
:101B10002DD0A1422BD0594529D0A94227D0B1427E
:101B200025D0B94223D0DFF8AC81A8F1780841452F
:101B30001DD0DFF8A081A8F16008414517D0DFF87B
:101B40009481A8F14808414511D0DFF88881A8F1B7
:101B5000300841450BD0DFF87C81A8F118084145D9
:101B600005D0714503D0514501D049452AD14FF0E8
:101B7000040880F8358061451FD091421DD09942FC
:101B80001BD0A14219D0594517D0A94215D0B14256
:101B900013D0B94211D04F48783881420DD04D480A
:101BA0006038814209D04B484838814205D04948C5
:101BB0003038814201D047481838086820F00100C9
:101BC000086078E0D1F8008028F00108C1F80080B2
:101BD0000168D1F8008028F00E08C1F80080016883
:101BE000614546D0914244D0994242D0A14240D072
:101BF00059453ED0A9423CD0B1423AD0B94238D042
:101C0000344A783A914234D0324A603A914230D0E4
:101C1000304A483A91422CD02E4A303A914228D04C
:101C20002C4A183A914224D0714522D0514520D0F7
:101C300049451ED02A4A91421BD0294A143291426A
:101C400017D0274A2832914213D0254A3C3291427C
:101C50000FD0234A503291420BD0214A6432914234
:101C600007D01F4A7832914203D01D4A8C329142EC
:101C700018D1026E0121136823F48073136090F869
:101C80005C30826D03F01F0399405160D0E9191256
:101C90004A60C16E31B10A6822F480720A60D0E9EC
:101CA0001C124A600122016D002380F8352080F863
:101CB000343001B18847002010E7000010000240D6
:101CC000580002407000024088000240A00002401C
:101CD000B800024088040240A0040240B804024058
:101CE000085402582DE9F05F04007DD06D4A6D4B19
:101CF0006C491832206830336B4E6C4F8842DFF8E5
:101D0000B0C1DFF8B081DFF8B091DFF8B0A1DFF843
:101D1000B0B1DFF8B0E121D090421FD098421DD081
:101D2000B0421BD0B84219D0604517D0404515D0FD
:101D3000484513D0504511D058450FD070450DD0AF
:101D4000604D1835A84209D05E4D3035A84205D007
:101D50005C4D4835A84201D05A4D6035056825F0E4
:101D60000105056020680025884227D0904225D0D3
:101D7000984223D0B04221D0B8421FD060451DD038
:101D800040451BD0484519D0504517D0584515D06F
:101D9000704513D04B49183188420FD04949303132
:101DA00088420BD047494831884207D045496031C5
:101DB000884203D043497831884218D121210560F7
:101DC00020684560206885602068C56020680561DE
:101DD000206841612046FFF781F894F85C203F219C
:101DE00002F01F02914000E059E0816031E0364985
:101DF00088421BD034491431884217D032492831E7
:101E0000884213D030493C3188420FD02E4950319E
:101E100088420BD02C496431884207D02A49783156
:101E2000884203D028498C31884238D10560206827
:101E30004560206885602068C5602068056120468F
:101E4000FFF74CF894F85C20012102F01F0291404A
:101E500041602046FFF79CF8206E18B10560D4E978
:101E6000190141606068401E072807D82046FFF727
:101E7000DDF8E06E0560D4E91C014160E566256788
:101E80006567E56325646564A564E5642565656546
:101E900084F83550002084F83450BDE8F09F0120CC
:101EA000FBE70000100002405800024070000240B2
:101EB00088000240A0000240B80002401004024026
:101EC000280402404004024008540258406D704704
:101ED0002DE9FC5F0446F74E0020DFF8D883009020
:101EE0004FF41652F44808F11808A56DDFF8C493B2
:101EF000DFF8C0A3016809F1300920680AF1480A37
:101F0000B1FBF2F1B04201912F68D5F800C0DFF8C3
:101F1000ACB335D04146884232D0484530D05045E8
:101F20002ED058452CD0E5491831884228D0E349B5
:101F30003031884224D0E1494831884220D0E049FC
:101F400088421DD0DE491831884219D0DC49303131
:101F5000884215D0DA494831884211D0DFF860E371
:101F60000EF1600E70450BD0D54A7832904207D002
:101F7000D34B9033984203D0D149A83188427DD1C8
:101F800094F85C20082102F01F0201FA02F23A42A2
:101F90004AD0B04232D0404530D048452ED050458E
:101FA0002CD058452AD0C54A1832904226D0C34A70
:101FB0003032904222D0C14A483290421ED0C04AAC
:101FC00090421BD0BE4A1832904217D0BC4A3032E1
:101FD000904213D0BA4A483290420FD0B84A603289
:101FE00090420BD0B64A7832904207D0B44A903231
:101FF000904203D0B24AA832904203D1026802F064
:10200000040202E0026802F008026AB1026822F0EB
:102010000402026094F85C0000F01F008140A96097
:10202000606D40F00100606594F85C00012100F0F3
:102030001F008140394240D02068B04234D0404532
:1020400032D0484530D050452ED058452CD09B4AF0
:102050001832904228D0994A3032904224D0974A80
:102060004832904220D0964A90421DD0944A18326D
:10207000904219D0924A3032904200E0AFE113D042
:102080008F4A483290420FD08D4A603290420BD036
:102090008B4A7832904207D0894A9032904203D0DE
:1020A000874AA83290427DD1406910F0800F04D059
:1020B000A960606D40F00200606594F85C00042146
:1020C00000F01F00814039423ED02068B04232D03B
:1020D000404530D048452ED050452CD058452AD0C8
:1020E000764A1832904226D0744A3032904222D03A
:1020F000724A483290421ED0714A90421BD0704AB8
:102100001832904217D06E4A3032904213D06C4A47
:10211000483290420FD06A4A603290420BD0684AEF
:102120007832904207D0664A9032904203D0644A97
:10213000A83290424ED1006810F0020F04D0A9607E
:10214000606D40F00400606594F85C00102100F0C0
:102150001F008140394258D02068B04234D04045F9
:1021600032D0484530D050452ED058452CD0534A17
:102170001832904228D0514A3032904224D04F4AEF
:102180004832904220D04E4A90421DD04C4A1832DC
:10219000904219D04A4A3032904215D0484A4832CB
:1021A000904200E014E00FD0454A603290420BD0DC
:1021B000434A7832904207D0414A9032904203D04D
:1021C0003F4AA832904207D1006800F0080006E0BC
:1021D000006872E70068B7E7006800F00400A0B18B
:1021E000A96020680168490304D50068000308D588
:1021F000A16C07E00168C90503D4016821F008015A
:102200000160216C09B12046884794F85C002021C8
:1022100000F01F008140394279D02068B04232D0AE
:10222000404530D048452ED050452CD058452AD076
:10223000224A1832904226D0204A3032904222D090
:102240001E4A483290421ED01D4A90421BD01C4A62
:102250001832904217D01A4A3032904213D0184A9E
:10226000483290420FD0164A603290420BD0144A46
:102270007832904207D0124A9032904203D0104AEE
:10228000A832904203D1006800F0100002E000681C
:1022900000F00200B0B3A96094F83500042820686B
:1022A00001680FD049037ED5006800032BD5616C0F
:1022B0002AE00000100002401000002470000240DC
:1022C0001004024021F0160101602068416921F0EC
:1022D00080014161206C08B9A06C20B120680168C0
:1022E00021F00801016094F85C303F21012003F0E7
:1022F0001F0300229940A96084F8350084F8342037
:10230000216D65E003E0E16B09B120468847606D0F
:1023100000287DD0606DC00759D02068042184F862
:102320003510B0422BD0404529D0484527D05045E4
:1023300025D0584523D09D49884220D09B4918314B
:1023400088421CD099493031884218D09849884237
:1023500015D097491831884211D0954930318842BB
:102360000DD093494831884209D091496031884263
:1023700005D08F497831884201D08D49903101686C
:1023800021F00101016020680099019A491C009127
:10239000914202D80168C907F6D10068C00710D081
:1023A00003200FE0FFE70168C905ACD403680121F1
:1023B000002223F01003036084F8351084F83420E1
:1023C000A1E7012084F83500002084F83400E16C96
:1023D00000291DD002B02046BDE8F05F08477549CE
:1023E00088421DD073491431884219D0714928316F
:1023F000884215D06F493C31884211D06D49503127
:1024000088420DD06B496431884209D0694900E0A7
:1024100084E07831884203D066498C3188427DD18E
:1024200094F85C800427016808F01F0807FA08F791
:1024300017EA0C0F009746D04F0744D500980F04B9
:10244000686003D5C8033CD5A16CC1E7880638D4C1
:102450002068B0422DD055496039884229D048457E
:1024600027D0504525D0584523D05049884220D008
:102470004E49183188421CD04C493031884218D01E
:102480004B49884215D04A491831884211D04849F1
:10249000303188420DD046494831884209D07045D4
:1024A00007D0904205D0984203D04149A8318842D4
:1024B00003D1016821F0080102E0016821F0040164
:1024C0000160216C84E7022707FA08F717EA0C0F6E
:1024D00000974ED08F074CD500980F04686003D545
:1024E000C80344D4616C73E7880640D42068B042C6
:1024F0002FD02E49603988422BD0484529D05045ED
:1025000027D0584525D02949884222D0274918315B
:1025100088421ED025493031884200E044E018D07E
:102520002349884215D022491831884211D02049C8
:10253000303188420DD01E494831884209D070455B
:1025400007D0904205D0984203D01949A83188425B
:1025500003D1016821F0140102E0016821F00A01B1
:102560000160012184F83510002084F83400E16B0B
:102570002EE7082202FA08F212EA0C0F14D009071B
:1025800012D5016821F00E01016094F85C10012061
:10259000002201F01F0100FA01F16960606584F812
:1025A000350084F8342012E7BDE8FC9F8800024023
:1025B00010040240085402582DE9F05F044601F06F
:1025C00053FC002C07467DD0E24E022120684FF0DC
:1025D0000308DFF884934FF00005DFF880A3B042D2
:1025E000DFF87CB334D0DB4A1832904230D0484513
:1025F0002ED050452CD058452AD0D94A1832904276
:1026000026D0D74A3032904222D0D54A4832904222
:102610001ED0D44A90421BD0D24A1832904217D0D2
:10262000D04A3032904213D0CE4A483290420FD036
:10263000CC4A603290420BD0CA4A7832904207D0DE
:10264000C84A9032904203D0C64AA83290427DD107
:1026500084F83510B04284F834502ED0BD4918317A
:1026600088422AD0484528D0504526D0584524D005
:10267000BB491831884220D0B949303188421CD03A
:10268000B7494831884218D0B649884215D0B54973
:102690001831884211D0B349303188420DD0B14948
:1026A0004831884209D0AF496031884205D0AD49F0
:1026B0007831884201D0AB499031016821F00101A5
:1026C000016008E025E100BF01F0CEFBC01B05283A
:1026D00001D920211AE120680068C007F4D1D4E9AB
:1026E00002032168103418438E4694E88410D4E91C
:1026F000033809683A4310439B4A40EA0C00676973
:1027000018431140103C40EA0800042F40EA010041
:1027100003D1D4E90B12114308436168A1F12902E6
:10272000052A0BD9163A032A08D9083A012A05D9ED
:10273000083A032A02D97439032901D840F48010D9
:10274000CEF800002068676A406900E020E0042FAE
:1027500020F0070047EA00070DD1D4E90A0107433A
:1027600049B12046FEF79CFC28B14020606501215C
:1027700084F83510CDE0206847612046FEF7AEFBB7
:1027800094F85C203F2102F01F029140816055E0E7
:10279000764A90421BD0754B1433984217D0734B36
:1027A0002833984213D0714B3C3398420FD06F4B73
:1027B000503398420BD06D4B6433984207D06B4B2B
:1027C0007833984203D0694B8C3398427ED184F899
:1027D000351084F83450664B0168A26801EA030E94
:1027E000402A74D0802A73D05FF00002D4E90378C5
:1027F000D4E9053142EAD70242EAD8085B4AD4E973
:10280000077C48EAD30848EAD10141EAD70152429D
:1028100041EA1C11142341EA0E01016020681044B2
:10282000B0FBF3F08000E0652046FEF757FB94F81C
:102830005C20012102F01F02914041602068B042FB
:1028400057D044491831884253D0484551D050455B
:102850004FD058454DD042491831884249D040495F
:102860003031884245D03E494831884241D03D49C7
:1028700088423ED03B49183188423AD039493031FC
:10288000884236D037494831884232D035496031A4
:1028900088422ED03349783188422AD0314990314C
:1028A000884226D02F49A831884222D02F49884219
:1028B0001FD02E49143188421BD02C492831884220
:1028C00017D02A493C31884213D002E01DE017E0BE
:1028D00018E02649503188420BD02449643188429F
:1028E00007D022497831884203D020498C31884270
:1028F00029D12046FEF74CFBA06880280CD00CE0C4
:10290000102273E74FF4804270E74021616584F83C
:1029100035800120BDE8F09F6560216E2079086058
:10292000D4E9190141606068401E072808D8204694
:10293000FEF77CFBE06E0560D4E91C01416002E01B
:10294000E566256765670120656584F83500002028
:10295000E0E7000010000240400002405800024042
:1029600070000240100402403F8010FE08540258DC
:102970000F00FEFF2DE9F84F04008C464FF00000D9
:10298000009014D094F83400012812D094F83550F7
:102990000120002184F83400012D0CD0C0026065B4
:1029A0000120009084F834100098BDE8F88F0120D1
:1029B000FBE70220F9E78C4D0226206884F8356099
:1029C000A8428A4D61658A4E8A4FDFF82C82DFF873
:1029D0002C92DFF82CA2DFF82CB226D0A84224D00B
:1029E000B04222D0B84220D040451ED048451CD02D
:1029F00050451AD0584518D08349884215D082498D
:102A00001831884211D08049303188420DD07E493A
:102A10004831884209D07C496031884205D07A49E2
:102A20007831884201D078499031016821F0010164
:102A3000016061462046FEF75DFB6B4920688842D5
:102A40002CD0A8422AD0B04228D0B84226D0404547
:102A500024D0484522D0504520D058451ED06A4A3F
:102A600090421BD0684A1832904217D0664A3032E2
:102A7000904213D0644A483290420FD0624A60328A
:102A800090420BD0604A7832904207D05E4A903232
:102A9000904203D05C4AA83290420CD1026822F0E6
:102AA0001E0242F016020260206C88B120680268A3
:102AB00042F008020BE0026822F00E0242F00A0225
:102AC0000260206C20B12068026842F004020260BB
:102AD000206888424BD0A84249D0B04247D0B84283
:102AE00045D0404543D0484541D050453FD058455A
:102AF0003DD0454A90423AD0434A1832904236D0AF
:102B0000414A3032904232D03F4A483290422ED031
:102B10003D4A603290422AD03B4A7832904226D0D9
:102B2000394A9032904222D0374AA83290421ED081
:102B3000364A90421BD0354A1432904217D0334A5D
:102B40002832904213D0314A3C3290420FD02F4A63
:102B5000503290420BD02D4A6432904207D02B4A1B
:102B60007832904203D0294A8C3290420DD1206EA7
:102B70000268D20303D5026842F480720260E06EFC
:102B800018B1026842F4807202602068884226D040
:102B9000A84224D0B04222D0B84220D040451ED016
:102BA00048451CD050451AD0584518D0164988427F
:102BB00015D015491831884211D013493031884257
:102BC0000DD011494831884209D00F4960318842FF
:102BD00005D00D497831884201D00B499031016808
:102BE00041F001010160DFE61000024028000240D0
:102BF000400002405800024070000240880002403D
:102C0000A0000240B80002401004024008540258DC
:102C100070B5044601F028F90546601C02D004484E
:102C20000078044401F020F9401BA042FAD370BDA3
:102C30000400002410B590F89830012B09D0022B25
:102C400007D0D0F89C1041F00201C0F89C10012080
:102C500010BD03689C6D0C4203D1DC6D44F001048F
:102C600004E09C6D31EA04041FD00324DC658B056D
:102C700005D50368D3F8E0401443C3F8E0404B05A2
:102C800005D50368D3F8E4401443C3F8E440006872
:102C9000084A01EA0203446D074A1C434465106870
:102CA00040EA91701060002010BDDC6D44F0020419
:102CB000DCE70000FFFFCF3F14A8004070B50446DA
:102CC00090F89800022804D0D4F89C0040F0080046
:102CD0000DE02068D0F8C03013F07C5F0BD0D0F846
:102CE000C4309B020CD5D4F89C0040F40070C4F8AA
:102CF0009C00012070BDD4F89C0040F02000F6E755
:102D0000D0F8C400C0F3044520462B46FEF796FCDD
:102D100021680120A840C1F8D000C4F89400002028
:102D200070BD704770B590F89820012A09D0022A2A
:102D300007D0D0F89C1041F00201C0F89C1001208F
:102D400070BD0B68CA6883B10B69072A43EA4273F6
:102D500025D00C7A4A6942EA84724968006F00EB18
:102D6000C100C0E90032002070BD072A0DD00C7AE6
:102D7000D6060D8A4B6943EA847246EA0543C06E63
:102D800049681A4340F82120EDE70B8A4FF060555F
:102D9000D1E9062442EA034245EA0423EFE78A69BF
:102DA000DBE730B590F89850039C012D07D0D0F8A0
:102DB0009C1041F00401C0F89C10012030BD0D01B1
:102DC000016845EA820040EA43002043C1F88000E0
:102DD000002030BD70B590F89820012A09D0022A51
:102DE00007D0D0F89C1041F00201C0F89C100120DF
:102DF00070BD0368154A164C01EA02055E6D8A052E
:102E00004FF0000226EA05065E65236823EA917307
:102E1000236002D50368C3F8E020490502D50168A4
:102E2000C1F8E42001688A6D4B6D934303D1CB6DEB
:102E300023F00103CB650068416D114203D1C16DE0
:102E400021F00201C165002070BD0000FFFFCF3FEF
:102E500014A8004070477047F0B590F898500024CF
:102E6000022D04D0D0F89C1041F0080130E0402938
:102E700005D0412930D0056D8D4220D94DE005683F
:102E8000D5F8A04014F4FE0F19D0D5F8A44064067C
:102E90001AD0D5F8A440D5F8A460C4F30524F601EF
:102EA0000AD5D5F8A06016F0004F05D5D5F8A0508A
:102EB000641CC5F306452C40466F456C2BE0D0F8EA
:102EC0009C1041F0200103E0D0F89C1041F4807187
:102ED000C0F89C100120F0BD0568D5F8B04014F48E
:102EE000FE0FECD0D5F8B4406406EDD0D5F8B44070
:102EF000D5F8B460C4F30524F6010AD5D5F8B0605E
:102F000016F0004F05D5D5F8B050641CC5F3064542
:102F10002C40866FC56C654302E0456DC66F4D431E
:102F200006EB85052E6816F0804656602E6836D072
:102F300026F060461660D5F800C000262D4F0CF034
:102F4000005CC2F808C0D5F800C00CF0004CC2F814
:102F500010C0B5F804C01FFA8CFCC2F81CC0D5F82C
:102F600004C0CCF3034CC2F80CC0D5F804C00CF478
:102F7000801CC2F814C0D5F804C00CF4001CC2F8C0
:102F800018C0D5F804C0CCF3066CC2F820C0D5F840
:102F900004C008354FEADC7CC2F824C007E0C6F361
:102FA0008A46C7E715F806C003F806C0761CD2F8B3
:102FB0000CC017F80CC0B445F4D840290AD04129F8
:102FC0000CD020294FF001020CD200688A40C0F8D2
:102FD00098200DE00068C0F8A84009E00068C0F83B
:102FE000B84005E0006801F01F018A40C0F89C204D
:102FF0000020F0BD48E300080068D0F8C40000F0ED
:103000003F007047704700002DE9FF5FDFF834B3E1
:1030100004460BF10401DBF8000025680F68AA469E
:103020008007D5F85090696DD5F850806E6D2A6D87
:10303000D5F854C02B6D00EA8770009009F47049F0
:103040006F6D286D01EA09010191DAF85410DAF880
:103050005490DAF8505008F00F0806EA0806029675
:1030600002F0F00203F071536FEA09061F4000F00E
:1030700060700CEA020CCDF80CC0F20501EA000900
:103080000DD4E843C0050AD400214FF48073CAF878
:103090005030CBF800102046D4F8C0108847700597
:1030A00013D4E843400510D4206800234FF480680F
:1030B000D0F8DC20D0F8E410C0F85080CBF8003015
:1030C0001140D4F8B82020469047DFF87CA2009841
:1030D00058B12268830F00EA0A001065CBF800306F
:1030E0002046D4F8A02000999047019858B1226852
:1030F000830F00EA0A001065CBF800302046D4F8B0
:10310000A42001999047029858B12268830F00EAE1
:103110000A001065CBF800302046D4F8A8200299A8
:103120009047039858B12268830F00EA0A0010659F
:10313000CBF800302046D4F8AC20039990473005F6
:103140000DD4E84300050AD4236800204FF4006240
:103150001A65CBF800002046D4F8B0108847B005B7
:1031600013D4E843800510D4206800234FF400787E
:10317000D0F8D820D0F8E010C0F85080CBF800305C
:103180001140D4F8B4202046904730030DD4E843D2
:1031900000030AD4236800204FF400221A65CBF8FC
:1031A00000002046D4F8BC108847F0030DD4E84353
:1031B000C0030AD4236800204FF480321A65CBF88C
:1031C00000002046D4F8C410884770030DD4E843AB
:1031D00040030AD4236800204FF480221A65CBF8FC
:1031E00000002046D4F8C8108847B0030FD4E84345
:1031F00080030CD4236800204FF400321A65CBF80A
:103200000000D4F89C0040F08000C4F89C00B9F1A4
:10321000000F0CD022684FEA997309EA0A00106582
:10322000CBF800304946D4F8D020204690475FB113
:103230002268BB0F07EA0A001065CBF80030D4F80B
:103240009C003843C4F89C004049206888426CD1F7
:10325000606881468068800767D0D9F82060D9F817
:103260002410D9F82080D9F82420D9F820C0D9F822
:103270002470D9F82030D9F82450D9F8200003F46C
:10328000FC4306F00F0AD9F824601D4011EA0A0138
:10329000D9F824A008F030080CF4C07C00F4F02029
:1032A00002EA080807EA0C0706EA0006D9F820B087
:1032B00005D0C9F820102046D4F8D4209047B8F1A2
:1032C000000006D0616808624146D4F8D820204644
:1032D00090476FEA0A0040060FD46FEA0B004006E1
:1032E0000BD460684021C36BC26B01622046190C8D
:1032F000D4F8DC3002F03F02984737B160680762CB
:103300003946D4F8E0202046904735B16068056220
:10331000D4F89C002843C4F89C0036B1606806626B
:10332000D4F89C003043C4F89C00D4F89C000028DA
:1033300006D0D4F8CC1004B02046BDE8F05F0847B2
:10334000BDE8FF9F10A80040FFFFCF3F00A0004056
:103350002DE9F04194B0A5494C2204466846FDF79A
:1033600020F964B1A24D2068A84202D100F5807016
:10337000606094F898004FF0000820B137E0012019
:1033800014B0BDE8F0819B4AD4F8E410C4F8A02042
:10339000994884F89980C4F8A4009C34974800297F
:1033A000E06097482061974860619748A06197481E
:1033B000E06197482062974860629748A06297480A
:1033C000E06297482063974860639748A0639748F6
:1033D000E0639748206497486064A4F19C0402D19C
:1033E0009548C4F8E4002046D4F8E41088472068E3
:1033F000816921F01001816100F036FD0327064646
:1034000005E000BF00F030FD801B0A2811D82068BD
:1034100080690007F6D42068816941F0010181616B
:1034200000F022FD06460DE000F01EFD801B0A287C
:1034300008D9D4F89C0040F00100C4F89C0084F83E
:1034400098709CE720688069C007EDD0206881698A
:1034500041F002018161207C01282068816937D018
:1034600041F040018161607C01282068816932D08F
:1034700021F480418161A07C0128206881692DD0E0
:1034800041F4805181612068A268816921F4407112
:10349000114381612068816921F0A4018161206864
:1034A000016921F010010161E068012819D010B311
:1034B00002281BD02068816941F080018161206869
:1034C000016941F010010161E06803280ED012E0AB
:1034D00021F04001C6E741F48041CBE721F480515F
:1034E000D0E72068816941F0040103E02068816928
:1034F00041F020018161207E6FF0FF02D4E9077363
:10350000A68A1102400602EB0727A0F1007038439B
:1035100027685B1E184301EB06463043F861A0683C
:10352000B0F5407F11D104F12800A68C6FF00F0C8C
:1035300089C801EB0641401E02EB032210432268BA
:103540000CEB071318430843D060206E30B120689D
:10355000626ED0F8C0101143C0F8C010D4E9171241
:103560006846D14209D02168A36E51F8C82F50F89F
:10357000233022F007021A430A60216C49B1216806
:10358000636C51F8BC2F50F8233022F007021A4325
:103590000A60A16C51B12168E36C51F8BC2F50F85E
:1035A000233022F0700242EA03120A60216D51B109
:1035B0002168636D51F8BC2F50F8230022F4E062BB
:1035C00042EA002008602068A84204D1606881684F
:1035D00021F003018160C4F894800121C4F89C802B
:1035E00084F898102046FDF745FFC9E658E3000827
:1035F00000A00040232D0008D938000893380008A7
:1036000095380008DB380008D7380008D53800089E
:103610009138000805300008D3380008D138000878
:10362000552E0008572E0008CB380008CF38000868
:10363000CD380008C93800083D3600082DE9F047AC
:10364000B4B0814614212EA8FDF712F8B8216846BF
:10365000FDF70EF85A4C0026D9F800004FF08051C3
:10366000584A0C3C554F4FF00208554D9042DFF838
:1036700058A14FF0090930D100201B914A13CDE920
:103680000020684600F02AFE08B1FDF7DEFE38682B
:10369000401C3860012807D1286840F480702860F9
:1036A000286800F480703390206840F008002060A3
:1036B000206803222E922EA900F00800CDE92F8663
:1036C0003196CDE93290504600F0B6FA0022022140
:1036D000132000F051FC132033E03C4A904235D1D6
:1036E00000201B914FF40042CDE90020684600F015
:1036F000F5FD08B1FDF7A9FE3868401C38600128C7
:1037000007D1286840F480702860286800F4807031
:103710003390206840F002002060206860222E92E2
:103720002EA900F00200CDE92F863196CDE9329026
:10373000274800F081FA00220221142000F01CFC2E
:10374000142000F00CFC34B0BDE8F087214A904210
:10375000F9D100201B914FF40042CDE900206846CA
:1037600000F0BCFD08B1FDF770FE3868401C386001
:10377000012807D1286840F480702860286800F488
:1037800080703390206840F00800206020684FF47B
:1037900040512E91052200F00800CDE92F862EA978
:1037A0003196CDE93220504600F046FA00229F20A3
:1037B000114600F0E1FB9F20C3E700000000002459
:1037C000EC44025800A00040000C025800A4004045
:1037D0000004025800D400404FF0000310B53AB185
:1037E00090F89840012C0BD090F8984014B325E045
:1037F000D0F89C1041F48071C0F89C10012010BDDD
:1038000008291BD2DFE801F004070A0D1013232654
:10381000C0F8B02019E0C0F8BC2016E0C0F8C02005
:1038200013E0C0F8C42010E0C0F8C8200DE0C0F8D4
:10383000CC200AE006290AD007290BD0D0F89C102A
:10384000012341F48071C0F89C10184610BDC0F8E7
:10385000E420FAE7C0F8E820F7E74FF0000261B192
:1038600090F89830012B10D0D0F89C10012241F430
:103870008071C0F89C1010467047D0F89C1041F43D
:103880008071C0F89C1001207047C0F8A810F2E7C2
:1038900070477047704790F89810012907D0D0F80A
:1038A0009C1041F00401C0F89C10012070470221D7
:1038B00080F89810002201688B6923F001038B6166
:1038C000C0F89C201046704770477047704770479B
:1038D0007047704770477047704770472DE9F05F39
:1038E00004462D480F460026017D012911D00122F2
:1038F00002758046B146C0F818904CF2503A2079D3
:10390000C00709D001215046FDF7F2FE20B1012683
:103910003DE00220BDE8F09F2068204D012807D03F
:103920004FF0FF303860AA46A56840F2047B29E0DA
:1039300061682069FDF7CAFE2079C00727D0012100
:103940005046FDF7D5FE00B10126E86820F00800DA
:10395000E8601CE0226928466168FDF7A5FE207931
:10396000C0070ED001214CF25030FDF7C1FEDAF84D
:103970000C20060022EA0B02CAF80C2001D03D60A0
:1039800005E06D1CD4E902100844A842E2D8304694
:1039900088F81490BEE70000700F00240020005249
:1039A0000548C16841F00101C160C068C00701D08D
:1039B0000020704701207047002000522DE9F05F81
:1039C000214D08260F461446287D012813D00120DA
:1039D0002875A7F10061B1F5801F0FD24FF00009E3
:1039E0008246C5F818904CF2503B51465846FDF7B8
:1039F0007FFE28B124E00220BDE8F09F0120FBE714
:103A0000DFF84880D8F80C1041F00201C8F80C101B
:103A1000BFF36F8FBFF34F8F01CC761E16F0FF06FA
:103A200001C7F9D1BFF36F8FBFF34F8F514658468F
:103A3000FDF75EFED8F80C2022F00202C8F80C2038
:103A400085F81490D8E70000700F00240020005281
:103A50000748C168C90708D00649074A4160426063
:103A6000C068C00701D001207047002070470000E7
:103A70000020005223016745AB89EFCD2DE9F04FBF
:103A80004C4D00224FF0010A4FF00F0B8BE000BFAE
:103A90000AFA02F919EA01037DD022F0030606F1C1
:103AA000B0469407D6F808C4270FDFF80C810BFA4C
:103AB00007FE40450EEA0C0402D14FF0000C39E03D
:103AC000DFF8F8C0604502D14FF0010C32E0DFF8BA
:103AD000F0C0604502D14FF0020C2BE0DFF8E4C0EB
:103AE000604502D14FF0030C24E0DFF8DCC06045F4
:103AF00002D14FF0040C1DE0DFF8D0C0604502D1C8
:103B00004FF0050C16E0DFF8C8C0604502D14FF059
:103B1000060C0FE0DFF8BCC0604502D14FF0070C87
:103B200008E0DFF8B4C0604502D14FF0090C01E0B5
:103B30004FF00A0C0CFA07FCA44513D12C689C43E7
:103B40002C606F684FF0B0449F436F6067689F437D
:103B5000676027689F432760D6F8084424EA0E046C
:103B6000C6F8084406680323D7084FEA42084FEA1C
:103B7000427C03FA08F34FEADC6C1E4306600BFA42
:103B80000CF400EB87073E6AA6433E62C4689C4380
:103B9000C460446800E005E024EA090444608468E5
:103BA0009C438460521C31FA02F37FF471AFBDE88C
:103BB000F08F0000800000580000025800040258F6
:103BC00000080258000C0258001002580014025855
:103BD00000180258001C0258002402580F490A78A5
:103BE000042A12D0B0F5806F06D0B0F5805F0DD0FA
:103BF00001280AD106F0B4B9C87840F00100C870B5
:103C0000087940F00100087132B170474879002A04
:103C100040F001004871F8D106F02AB938010024BB
:103C20004FF0B04110B5D1F88820024203D0C1F85E
:103C30008800FFF7D3FF10BD2DE9F84F03247C4D1A
:103C400000234FF001094FF0B04B4FF00F0AE7E0AF
:103C500009FA03F632407BD00F7907F00307012FF2
:103C600001D0022F1AD187684FEA430ED1F80CC059
:103C700004FA0EF827EA08070CFA0EFC4CEA070CC7
:103C8000C0F808C0476891F804C0B743CCF3001CE3
:103C90000CFA03FC4CEA070CC0F804C00E79F6439A
:103CA000B60702D18E68012E0BD0C7684FEA4308D1
:103CB0008E6804FA08FC27EA0C0706FA08F63E4369
:103CC000C6600E7906F00306022E12D1DE080F69D7
:103CD0004FEA437C00EB8606B646366A4FEADC6C58
:103CE0000AFA0CF807FA0CF726EA08063743CEF86A
:103CF00020700F7906684FEA430807F0030704FABB
:103D000008FC07FA08F726EA0C06374307604E68F6
:103D100016F4403F1CD0474E376847F00207376023
:103D200036689F0706F00206009623F0030606F1A8
:103D3000B046B6463F0FD6F80864DFF8FC800AFAB2
:103D400007FC404526EA0C0603D14FF0000C3AE090
:103D500065E0DFF8E8C0604502D14FF0010C32E0C9
:103D6000DFF8DCC0604502D14FF0020C2BE0DFF839
:103D7000D4C0604502D14FF0030C24E0DFF8C8C086
:103D8000604502D14FF0040C1DE0DFF8C0C0604573
:103D900002D14FF0050C16E0DFF8B4C0604502D147
:103DA0004FF0060C0FE0DFF8ACC0604502D14FF0D9
:103DB000070C08E0DFF8A0C0604502D14FF0090C05
:103DC00001E04FF00A0C0CFA07FC4CEA060CCEF8A6
:103DD00008C44F68DBF80060FF0226EA020600D53F
:103DE00016435F46CBF80060D1F804C0DBF80460EE
:103DF0005FEA8C2C26EA020600D516437E606E68C8
:103E00004F6826EA0206BF0300D516436E602E688F
:103E10004F6826EA0206FF0300D516432E605B1C9E
:103E20000A6832FA03F67FF413AFBDE8F88F00009A
:103E300080000058F4440258000002580004025860
:103E400000080258000C02580010025800140258D2
:103E500000180258001C0258002402580AB181615F
:103E600070470904FBE700000148806870470000C4
:103E70000400002402488168027811448160704780
:103E800004000024032010B500F096F801F038F883
:103E90000F4A104914681368C4F3032203F00F0398
:103EA0008A5CC95C02F01F0201F01F01D0400A4A7F
:103EB00020FA01F11160094908600F2000F010F8A4
:103EC00008B1012010BD00F02BF8002010BD00004B
:103ED00018440258D4E30008140000241000002401
:103EE00070B50D4D04462878A0B14FF47A71B1FB3E
:103EF000F0F00A490968B1FBF0F002F0F5F848B9B2
:103F0000102C07D200222146501E00F035F8002068
:103F10006C6070BD012070BD0400002410000024FE
:103F2000054808B5016841F002010160006800F031
:103F30000200009008BD0000F444025800280DDB88
:103F4000410900F01F028900012001F1E0219040A9
:103F5000C1F88001BFF34F8FBFF36F8F7047002808
:103F600009DB410900F01F028900012001F1E02175
:103F70009040C1F8000170470E4BF0B41B680D462D
:103F8000C3F30223C3F10706042E00D90426191D2A
:103F9000072901D2002300E0DB1E012404FA06F108
:103FA0009C40491E2940641E994014402143F0BCA6
:103FB00009F03BB80CED00E0064900F0070210B52F
:103FC0004FF6FF040868044B204040EA02201843E3
:103FD000086010BD0CED00E00000FA05134970B553
:103FE0000A68D243520705D5096801F007018142EA
:103FF00013D118E00A6822F0070202430A60FFF7B3
:1040000033FF0A4D4FF47A760446083D07E000BFBF
:10401000FFF72AFF001BB04201D9012070BD2868BC
:10402000C0438004F4D4002070BD00000C48025846
:1040300010B500F01FFF05490968054AC1F30211D8
:10404000515C01F01F01C84010BD0000204402581F
:10405000D4E30008494930B5484C0B1D0A681434B4
:1040600009681D68246802F00303C5F30012C1F358
:104070000531C4F3CC04002914FB02F200EE102A2F
:10408000F8EE400A75D03F4A9FED3D1AB7EE000AA0
:104090006BB1DFED3D1A012B01D0022B64D002EE93
:1040A000101A1168F8EE422A81EEA22A21E0334C60
:1040B000283C23689B0612D5344B246801EE901AE5
:1040C0001168C4F3C104F8EE612AE34001EE903AAE
:1040D000C1F30801F8EE611A81EEA22A0BE001EEAD
:1040E000901ADFED2B2A00BFF8EE611A116882EEFC
:1040F000A12AC1F3080101EE901A1168F8EE611AC5
:1041000040EE811A71EE800A62EE200AC1F3462168
:1041100001EE101AB8EE411A31EE001AC0EE811A03
:10412000BCEEE11A80ED001A1168C1F3064101EE00
:10413000101AB8EE411A31EE001AC0EE811ABCEE28
:10414000E11A80ED011A1168C1F3066101EE101A3F
:10415000B8EE411A31EE000A80EE801ABCEEC10AB8
:1041600080ED020A30BD04E001EE901ADFED092A6D
:10417000BAE70021016041608160F3E728440258FA
:1041800000000039384402580024744A0090D003DB
:104190000024744C001BB74B494930B5484C0B1DEB
:1041A0000A681C3409681D68246802F00303C5F31B
:1041B0000022C1F30551C4F3CC04002914FB02F220
:1041C00000EE102AF8EE400A75D03F4A9FED3D1AE6
:1041D000B7EE000A6BB1DFED3D1A012B01D0022BC7
:1041E00064D002EE101A1168F8EE422A81EEA22A7B
:1041F00021E0334C283C23689B0612D5344B2468BD
:1042000001EE901A1168C4F3C104F8EE612AE3408C
:1042100001EE903AC1F30801F8EE611A81EEA22A8C
:104220000BE001EE901ADFED2B2A00BFF8EE611AC9
:10423000116882EEA12AC1F3080101EE901A1168FB
:10424000F8EE611A40EE811A71EE800A62EE200AE1
:10425000C1F3462101EE101AB8EE411A31EE001AF0
:10426000C0EE811ABCEEE11A80ED001A1168C1F3AC
:10427000064101EE101AB8EE411A31EE001AC0EEF6
:10428000811ABCEEE11A80ED011A1168C1F30661D2
:1042900001EE101AB8EE411A31EE000A80EE801AD3
:1042A000BCEEC10A80ED020A30BD04E001EE901AB6
:1042B000DFED092ABAE70021016041608160F3E780
:1042C0002844025800000039404402580024744A2F
:1042D0000090D0030024744C001BB74B2DE9FE4F17
:1042E0000546DFF800A450F8081B0024FD4FC94321
:1042F000019005F1280026460AF1240A00900801E1
:104300001DD4686E50B1B0F5801F0CD0B0F5001F01
:104310000ED0B0F5401F1ED001240FE0386840F4E5
:104320000030386017E00198022103F0C7FE03E077
:104330000098022103F052FF04000CD02646288882
:10434000C043C00523D4A86D05281ED2DFE800F0C5
:104350000C11161B1B006A6EDAF8001021F44011D4
:104360001143CAF80010EAE7386840F400303860BA
:1043700009E00198002103F0A1FE03E0009800216C
:1043800003F02CFF0446C4B100E00124264628882F
:10439000DFF85083C04308F12C0840052FD4D5F82E
:1043A000A400B0F5C00F28D010DCB8B1B0F5001FE4
:1043B00019D0B0F5800F0FD11AE0AA6DDAF800100D
:1043C00021F007011143CAF80010E0E7B0F5000F33
:1043D00013D0B0F5200F10D001240FE0386840F45E
:1043E0000030386009E00198002103F067FE03E027
:1043F0000098002103F0F2FE044694B12646288876
:10440000C043000530D4D5F8A800B0F1407F29D0D2
:1044100011DCC0B1B0F1807F1AD0B0F1007F10D1B3
:104420001BE0D5F8A420D8F8001021F46001114356
:10443000C8F80010E3E7B0F1806F13D0B0F1A06FBF
:1044400010D001240FE0386840F40030386009E0F3
:104450000198002103F032FE03E00098002103F0F0
:10446000BDFE044694B126462868DFF878B2C04302
:104470000BF1200B80011FD4E86CD8B110280FD0AD
:10448000202812D0302815D0012414E0D5F8A82017
:10449000D8F8001021F0E0611143C8F80010E3E7FC
:1044A000386840F40030386004E00198022103F0DD
:1044B00005FE044674B126462888C043C0042BD4A8
:1044C000E86DB0F5005F20D00DDCA0B1B0F5805FE5
:1044D0000FD115E0EA6CDBF8001021F03001114338
:1044E000CBF80010E8E7B0F5405F13D0B0F5804F8F
:1044F00010D001240FE0386840F40030386009E043
:104500000198002103F0DAFD03E00098002103F098
:1045100065FE04468CB126462888C043800429D411
:10452000286EB0F5403F23D010DC08B3B0F5803FD3
:1045300014D0B0F5003F0FD115E0EA6DDAF80010A5
:1045400021F4E0411143CAF80010E5E7B0F5802FEF
:104550000ED0B0F5A02F0BD001240AE00198012164
:1045600003F0ACFD03E00098012103F037FE0446A0
:1045700094B126462888C04340042AD4D5F8AC001C
:10458000B0F1405F23D010DC08B3B0F1805F14D0ED
:10459000B0F1005F0FD115E02A6EDAF8001021F4B7
:1045A000E0211143CAF80010E4E7B0F1804F0ED0CB
:1045B000B0F1A04F0BD001240AE00198012103F0D3
:1045C0007DFD03E00098012103F008FE044674B16C
:1045D00026462888C04300041FD4E86ED8B1B0F145
:1045E000805F0ED0B0F1005F10D0012414E0D5F848
:1045F000AC20D8F8001021F0E0411143C8F80010B9
:10460000E7E7386840F40030386004E001980121A1
:1046100003F054FD044674B126462868C043C00127
:104620001ED4A86CD0B101280ED0022811D00328C6
:1046300014D0012413E0EA6EDAF8001021F04051A2
:104640001143CAF80010E8E7386840F400303860D9
:1046500004E00198022103F031FD04466CB12646C6
:104660002868C043400255D41F48016841F4807156
:104670000160FFF7F9FB81460EE0AA6CDBF8001041
:1046800021F003011143CBF80010E9E7FFF7ECFB41
:10469000A0EB090064283BD813480068C005F5D595
:1046A000BCBBDFF84090B5F8B01009F14409D9F867
:1046B000000001F4407100F44070884211D0D9F834
:1046C0000010D9F8002021F4407142F48032C9F87A
:1046D0000020D9F8002022F48032C9F80020C9F85F
:1046E000001003E02C44025800480258D5F8B000EE
:1046F000B0F5807F19D1FFF7B7FB029011E000BF42
:10470000FFF7B2FB0299411A41F28830814208D981
:10471000032426462878DFF81494C043C00721D02C
:104720003CE0D9F800008007EAD5D5F8B010C1F315
:1047300001200328FE480DD0016821F47C5101605E
:10474000B5F8B020D9F80010C2F30B021143C9F834
:104750000010DFE7F74A036802EA111223F47C51E4
:104760001143ECE7A86F182816D005DCA0B1082883
:1047700008D0102804D10AE020280DD028280BD01A
:1047800001240AE00198012103F098FC03E000985D
:10479000012103F023FD044664B126462878C04376
:1047A00080071ED4686F062819D2DFE800F0160CC7
:1047B00011161616AA6FD9F8001021F0380111430E
:1047C000C9F80010EAE70198012103F077FC03E043
:1047D0000098012103F002FD04467CB100E00124B1
:1047E00026462878C04340071FD4D5F890000628F5
:1047F00019D2DFE800F0160C111616166A6FD9F8F8
:10480000001021F007011143C9F80010E9E70198F1
:10481000012103F053FC03E00098012103F0DEFCCA
:104820000446A4B100E0012426462878C04380064F
:104830002BD4D5F88C00B0F1405F24D011DC10B33C
:10484000B0F1805F15D0B0F1005F10D116E0D5F85F
:104850009020D8F8001021F007011143C8F800108B
:10486000E3E7B0F1804F0ED0B0F1A04F0BD00124A0
:104870000AE00198002103F021FC03E000980221E6
:1048800003F0ACFC044694B126462878C0434006A9
:104890002BD4D5F89800B0F5406F24D011DC10B3BC
:1048A000B0F5806F15D0B0F5006F10D116E0D5F8D7
:1048B0008C20D9F8001021F0E0411143C9F8001014
:1048C000E3E7B0F5805F0ED0B0F5A05F0BD0012418
:1048D0000AE00198002103F0F1FB03E000980221B7
:1048E00003F07CFC044694B126462878C0430006B9
:1048F0002BD4D5F89C00B0F5C04F24D011DC10B3F8
:10490000B0F5005F15D0B0F5804F10D116E0D5F8A6
:104910009820D8F8001021F4E0511143C8F8001095
:10492000E3E7B0F5004F0ED0B0F5204F0BD00124D7
:104930000AE00198002103F0C1FB03E00098022186
:1049400003F04CFC044654B126462878C0430007C7
:104950001ED4D5F88000B0F5805F0AD00FE0D5F8FE
:104960009C20D8F8001021F460411143C8F80010D1
:10497000EBE70098022103F031FC00B10126D5F8E5
:104980008020D9F8001021F440511143C9F80010DB
:104990002878C043C00613D4D5F89400B0F5807FC2
:1049A00005D10098022103F019FC00B10126D5F8C9
:1049B0009420D8F8001021F440711143C8F8001079
:1049C0002868C043000316D4D5F8A00038B1B0F56C
:1049D000803F09D0B0F5003F0BD001240AE00198D8
:1049E000002103F06BFB03E00098022103F0F6FBCB
:1049F00004468CB126462868C043400322D4D5F82B
:104A00008400B0F5801F11D0B0F5001F13D0B0F5B1
:104A1000401F15D0012414E0D5F8A020D8F80010CC
:104A200021F440311143C8F80010E4E7386840F43D
:104A30000030386004E00098012103F0CFFB044609
:104A40005CB126462868C043C0031CD4286D70B1F1
:104A5000B0F5803F10D0012414E0D5F88420D9F8B7
:104A6000001021F440111143C9F80010EAE738683A
:104A700040F40030386004E00198022103F01EFB8E
:104A80000446DCB126462868C043800005D400985F
:104A9000022103F0A3FB00B101262868C043800374
:104AA0001BD4E86FB8B1B0F5807F10D0B0F5007FAF
:104AB00011D0B0F5407F0ED001240DE02A6DDBF857
:104AC000001021F480311143CBF80010DBE7386887
:104AD00040F4003038607CB326462868C043C002EA
:104AE00007D42A6FDAF8001021F000411143CAF808
:104AF00000102868C043800207D4AA6EDAF80010BC
:104B000021F080711143CAF800102868C0434000AA
:104B100009D40748016821F4004101600168D5F813
:104B2000B420114301602868C04306E05444025891
:104B300010440258CFFFFF001DE007D46A6DDBF878
:104B4000001021F040511143CBF800102868C043F9
:104B5000000208D4D5F88820D9F8001021F44001CB
:104B60001143C9F8001028790024C04300F0010067
:104B7000204309D00EE0EA6FD9F8001021F440710B
:104B80001143C9F80010A8E70198002103F096FA34
:104B900000B106462879C04300F00200204305D149
:104BA0000198012103F08AFA00B106462879C04332
:104BB00000F00400204305D10198022103F07EFAA1
:104BC00000B106462879C04300F00800204305D113
:104BD0000098002103F002FB00B106462879C0438B
:104BE00000F01000204305D10098012103F0F6FAEF
:104BF00000B106462879C04300F02000044304D1E8
:104C00000098022103F0EAFA00B916B10120BDE8CC
:104C1000FE8F0020FBE700002DE9F05F04000F4647
:104C20007ED0DFF83882D8F8000000F00F00B842DC
:104C30000CD2D8F8001021F00F013943C8F8001049
:104C4000D8F8000000F00F00B84269D12078844DF8
:104C500040070AD52069296801F07001884204D90B
:104C6000296821F070010143296020787C4E361DAF
:104C700000070AD56069316801F07001884204D9E3
:104C8000316821F07001014331602078C0060AD5F7
:104C9000A069316801F4E061884204D9316821F4E7
:104CA000E061014331602078DFF8B4B180060BF198
:104CB000080B0CD5E1695846DBF8002002F07002C1
:104CC000914204D9026822F070020A4302602078FF
:104CD00080070AD5E068296801F00F01884204D9ED
:104CE000296821F00F01014329602078C0073ED0D8
:104CF0005B49A2682868183920F470601043286066
:104D00006068022818D0032819D00968012819D032
:104D1000490700294ADADFF848A1AAF1080A00E0A9
:104D200044E0DAF8002022F007020243CAF800202B
:104D3000FFF79AF8814612E009688903E9E70968F4
:104D40008901E6E7C905E4E7FFF78EF8A0EB090162
:104D500041F28830814202D90320BDE8F09F6168AA
:104D6000DAF8000000F03800B0EBC10FECD1207889
:104D700080070AD5E068296801F00F01884204D253
:104D8000296821F00F0101432960D8F8001040463E
:104D900001F00F01B9420BD9016821F00F0139432D
:104DA0000160006800F00F00B84201D00120D4E794
:104DB000207840070AD52069296801F070018842EF
:104DC00004D2296821F0700101432960207800078E
:104DD0000AD56069316801F07001884204D23168F7
:104DE00021F07001014331602078C0060AD5A06926
:104DF000316801F4E061884204D2316821F4E06155
:104E000001433160207880060CD5E1695846DBF813
:104E1000002002F07002914204D2026822F0700277
:104E20000A43026000F06CF80E492A682B68C2F34E
:104E3000032203F00F038A5CC95C02F01F0201F039
:104E40001F01D040084A20FA01F1116007490860AB
:104E500007480068BDE8F05FFFF742B80020005245
:104E600018440258D4E30008140000241000002461
:104E70000800002430B500F043F80B4A0B490C4BF6
:104E800015681468C5F3032204F00F048A5C095DF9
:104E900002F01F0201F01F01D040064A20FA01F182
:104EA00019601060084630BD18440258D4E3000869
:104EB000140000241000002400B5FFF7DBFF0549B3
:104EC0000968054AC1F30211515C01F01F01C84095
:104ED00000BD00001C440258D4E3000800B5FFF7F1
:104EE000C9FF05490968054AC1F30221515C01F077
:104EF0001F01C84000BD00001C440258D4E3000854
:104F0000454970B545480968434B103B11F03802DC
:104F100008D00111082A03D0102A0BD0182A0BD070
:104F2000084670BD19688906FBD51968C1F3C1012F
:104F3000C84070BD3A4870BD3749374D18310C1D17
:104F400024350A68096826682D6802F0030406F013
:104F50000102C1F30511C5F3CC0515FB02F200EE09
:104F6000102AB8EE400AE9B32F4ADFED2E0AB7EE59
:104F7000001A6CB1DFED2D1A012C01D0022C43D0A8
:104F800002EE101A1068F8EE422A81EEA22A1EE004
:104F90001C68A40611D51B6801EE901A1168C3F3B2
:104FA000C103F8EE612AD84001EE900AC1F308006F
:104FB000F8EE611A81EEA22A0BE001EE901ADFED05
:104FC0001C2A00BFF8EE611A106882EEA12AC0F315
:104FD000080001EE900AF8EE611A40EE201A31EE58
:104FE000810A00E015E022EE000A1068C0F34620B6
:104FF000401C00EE900AF8EE600A80EE201ABCEE2B
:10500000C10A10EE100A70BD01EE901ADFED092AF8
:10501000D8E7002070BD0000104402580090D00373
:1050200000366E0100000039304402580024744AF2
:105030000024744C001BB74B2DE9F05F04007DD0B9
:10504000FF4F2078FE4D1837DFF8F483103DC0077E
:1050500048D0D8F80000396800F03800102815D082
:10506000182803D101F0030002280FD06068B0F5C2
:10507000803F12D010B1B0F5A02F18D0286820F4CE
:1050800080302860286820F4802009E028688003A8
:1050900028D560680028D2D024E0286840F4803009
:1050A0002860606888B1FEF7DFFE064609E02868E0
:1050B00040F480202860F0E7FEF7D6FE801B6428CD
:1050C0007ED828688003F7D50CE0FEF7CDFE0646B3
:1050D00005E000BFFEF7C8FE801B6428F0D82868F2
:1050E0008003F7D42078800756D5D8F80000DFF881
:1050F0005093396810F03800A9F10C090ED0182827
:1051000001D188070AD0E068A8B3296821F0190105
:1051100001432960FEF7A8FE064628E028684007FC
:1051200002D5E06800288AD0E168286820F01900DC
:1051300008432860FEF798FE064606E0D2E000BF6E
:10514000FEF792FE801B0228BAD828684007F7D5E0
:10515000217CD9F8002022F0FE4242EA0161C9F820
:10516000001019E0FEF780FE801B0228A8D82868EE
:105170004007F7D5ECE7FFE7286820F0010028603A
:10518000FEF772FE064604E0FEF76EFE801B022864
:1051900096D828684007F7D42078C00646D5D8F8B6
:1051A0000000DFF89C92396800F03800A9F104098A
:1051B000082812D0182805D101F00300012800E0CA
:1051C000CEE00AD0E0690028286820D040F08000B6
:1051D0002860FEF749FE064615E02868C00502D59E
:1051E000E06980287ED194F82010D9F8002022F0C0
:1051F0007C5242EA0161C9F8001017E0FEF734FE64
:10520000801B0228A0D82868C005F7D5EBE720F05E
:1052100080002860FEF728FE064604E0FEF724FE24
:10522000801B022890D82868C005F7D42078000792
:1052300029D583486169643000298146016811D00D
:1052400041F001010160FEF70FFE064605E000BFD8
:10525000FEF70AFE801B022888D8D9F800008007D4
:10526000F6D510E021F001010160FEF7FDFD0646D4
:1052700005E000BFFEF7F8FD801B022870D8D9F8C2
:1052800000008007F6D42078800623D5A069002886
:10529000286810D040F480502860FEF7E5FD0646EF
:1052A00005E000BFFEF7E0FD801B022858D8286803
:1052B0008004F7D50EE020F480502860FEF7D4FD7E
:1052C000064604E0FEF7D0FD801B022848D8286877
:1052D0008004F7D42078400751D5DFF86891D9F8D9
:1052E000001000E015E141F48071C9F80010FEF7EC
:1052F000BBFD064605E000BFFEF7B6FD801B642837
:105300002ED8D9F80000C005F6D54D4EA0686036FD
:1053100001280AD008B1052813D0306820F0010018
:105320003060306820F0040002E0306840F0010096
:105330003060A06841F2883A98B1FEF795FD814649
:105340000AE0306840F004003060EEE7FEF78CFDC4
:10535000A0EB0901514503D830688007F6D50EE06F
:1053600072E0FEF781FD814606E000BFFEF77CFD9E
:10537000A0EB0901514567D830688007F6D4606A10
:1053800000287CD0DFF8B8A0D8F800100AF1200A75
:105390004FF6F87B0AF10408C1F3C2010329AAF110
:1053A00004096DD00228286820F08070286003D09E
:1053B000FEF75AFD044681E0FEF756FD064604E07E
:1053C000FEF752FD801B022875D828688001F7D4AB
:1053D000E26A40F2F331386854F8283F884340EAE3
:1053E000021018433860217B4FF4FE0C22894FF0E5
:1053F000FE47208A4902267D521E401EA1F50071FB
:1054000089B2C2F308021143761E0CEA0040014340
:10541000484607EA06621143CAF80010D9F800109E
:1054200021F00101C9F80010D8F80030266A23EAFB
:105430000B0343EAC601C8F80010D9F8001004E0D5
:10544000104402580048025835E0A26921F00C01CE
:105450001143C9F800100168E26921F0020111430B
:105460000160016841F480310160016841F400315C
:105470000160016841F480210160016801E06CE095
:1054800020E041F001010160286840F08070286050
:10549000FEF7EAFC044604E0FEF7E6FC001B0228E7
:1054A00009D828688001F7D557E000BFFEF7DCFC7B
:1054B000001B022802D90320BDE8F09F2868800164
:1054C000F4D44AE039680128DAF8000021D0A26A51
:1054D00001F0030393421CD1E26AC1F305118A4231
:1054E00017D1216BC0F30802491E8A4211D1616BAA
:1054F000C0F34622491E91420BD1A16BC0F3064274
:10550000491E914205D1E16BC0F30660491E8142FC
:1055100001D00120D0E7A16C4646D8F80000C0F3C6
:10552000CC00814219D0D9F800004D4620F001008E
:10553000C9F80000FEF798FC4FEA0007FEF794FC5C
:10554000B842FBD0A26C306820EA0B0040EAC200EF
:105550003060286840F0010028600020ACE7704708
:10556000D0F8841041F48061C0F8841001207047A5
:10557000164A0168914228D1D0F88410102905D02C
:10558000D0F88400002820D0FBF75FBF104900222C
:10559000C0F884204879830705D520F0010040F049
:1055A0000200487110E00879830705D520F001005A
:1055B00040F00200087107E0C878830704D520F0A6
:1055C000010040F00200C8700A70704700380040C7
:1055D000380100242DE9F0470446006800210369E2
:1055E0004269876894F8816000F130095FEA025CE3
:1055F00003EA020508D51A0706D5816941F400615E
:105600008161D4F8A8107AE015F0600F08D168071E
:1056100006D5616F20468847216F204688470121C3
:1056200005F04100012805D1680703D4216F204609
:105630008847012105F02200022803D1680701D420
:10564000616F5CE000297DD128074FF001085AD531
:105650002068816941F0080181612068816941F019
:10566000100181612068816941F4006181612068D5
:10567000016921F0080101612068806810F4404F41
:1056800020D023E0E0680F2806D92168606E096BFE
:105690000160606E001D0FE0072806D9B9F8000010
:1056A000616E0880606E801C06E02068616E90F874
:1056B00030000870606E401C6066B4F86A00401EDE
:1056C000A4F86A00B4F86A000028DBD1204602F092
:1056D0001BFE84F88180D4F8840010B1D4F8A010A7
:1056E0000DE0052E06D0042E07D0032E7DD1D4F870
:1056F000881004E0D4F8901001E0D4F88C10204613
:10570000BDE8F047084715F4587F6ED068060AD503
:10571000D4F8840040F00400C4F884002068816953
:1057200041F040018161A8050AD5D4F8840040F019
:105730000100C4F884002068816941F4007181612E
:10574000E80500E051E00AD5D4F8840040F00800F4
:10575000C4F884002068816941F480718161A806E1
:105760000AD5D4F8840040F08000C4F88400206892
:10577000816941F020018161D4F88400002834D08F
:10578000206840F26B32C7F381310368032923F0AC
:10579000010101602068016921EA0201016102D072
:1057A00084F881809AE72068114D816821F4404196
:1057B0008160E06F50B10565E06FFCF785F928B1B5
:1057C000D4F8840040F04000C4F88400A06F0028A2
:1057D0000BD00565A06FFCF777F9002805D0D4F849
:1057E000840040F04000C4F88400BDE8F087000069
:1057F000C58300082DE9F047040029D0674A4FF01F
:1058000000092068664B674D9042C4F8289006D086
:10581000984204D0A84202D0E1680F2918D8E16864
:105820004FF0010AE76B0831C9080AEB57167143BC
:10583000904205D0984203D0A84201D0082907D849
:10584000904203D0984201D0A84204D1102902D935
:105850000120BDE8F08794F8810010BB524AD4F8CB
:10586000AC10C4F88820514884F88090C4F88C00AB
:1058700080344F4820614F4860614F48A0614F48D5
:10588000E0614F4820624F4860624F48A062A4F137
:10589000800411B94D48C4F8AC002046D4F8AC10CF
:1058A0008847022084F881002068016821F0010106
:1058B00001602068A1698268B1F1806F02F4F8117B
:1058C00010D16268B2F5800F01D01AB10AE0A26B64
:1058D00022B107E0A26BB2F1805F03D1026842F40B
:1058E000805202606068400209D5E068072806D34C
:1058F0002068236D026822F480721A4303E0206856
:10590000026822F480720260A66AE069E26B256890
:105910003043E3680A4310431843A860D4E90D02FA
:10592000D4E90581636A25691843276A0A43266812
:1059300010432843A56DD4E901C2D4E9123140EAED
:105940000800384340EA0C0008431043184328433A
:10595000F060606868B92068816821F4C05141F442
:10596000006181602068816821F4C06141F4806138
:1059700081602068016D21F00101016560684002CD
:1059800006D52068626DC16821F000411143C160F5
:10599000C4F8849084F881A000205AE700300140C8
:1059A00000380040003C004041600008F15A000807
:1059B0004560000843600008F35A0008D5600008FD
:1059C000715500085F550008F55A0008D1590008C4
:1059D0002DE9F041B4B0074614212EA8FAF748FE8D
:1059E000B8216846FAF744FE3B49386888426FD1CF
:1059F0008114002017900446CDE900106846FEF798
:105A00006DFC08B1FBF721FD3448016841F4804189
:105A10000160006800F48040339030480838016825
:105A200041F004010160016801F004013391016853
:105A300041F00201016000680526022500F0020025
:105A4000339006202E90CDE92F5425482EA9CDE97C
:105A50003146FEF7F1F828032E90CDE92F54214866
:105A60002EA9CDE93146FEF7E7F81F4E27221F4940
:105A70004FF48068304686E81600C6E90348746132
:105A8000B461F46134627462FCF796FD08B1FBF70F
:105A9000DCFC154D2822154940237835FE67183166
:105AA000B763284685E81E016C61AC61EC612C622D
:105AB0006C62FCF781FD08B1FBF7C7FC0022BD67F3
:105AC00024201146AF63FEF757FA2420FEF747FA69
:105AD00034B0BDE8F081000000380040E8440258CE
